:100000000C9472000C949A000C949A000C94E007E3
:100010000C94E0070C94E0070C949A000C949A005E
:100020000C949A000C949A000C949A000C949A00E8
:100030000C949A000C949A000C949A000C949A00D8
:100040000C9477060C949A000C9445060C941F06A9
:100050000C949A000C949A000C949A000C949A00B8
:100060000C94C1060C949A0005A84CCDB2D44EB99C
:100070003836A9020C50B9918688083CA6AAAA2A4B
:10008000BE000000803F00000008000201000003E5
:100090000407000000000000000000000000230032
:1000A0002600290000000000240027002A0000008C
:1000B0000000250028002B000404040404040404A8
:1000C0000202020202020303030303030102040803
:1000D00010204080010204081020010204081020B2
:1000E0005808DB0B11241FBECFEFD8E0DEBFCDBF19
:1000F00011E0A0E0B1E0ECE5FDE102C005900D9259
:10010000A836B107D9F723E0A8E6B1E001C01D92F7
:10011000A733B207E1F710E0C1E7D0E004C02197B0
:10012000FE010E949B0EC037D107C9F70E945109FA
:100130000C94A10E0C940000EFE6F2E0A089B189C6
:1001400082E08C93A485B5851C92A685B7858FEC3B
:100150008C93108EA489B58986E08C93A289B3898B
:100160008C9180618C93A289B3898C9188608C93E7
:10017000A289B3898C9180688C930288F389E02DE1
:1001800080818F7D808308958091FE019091FD0193
:10019000891B990B089508950895AF92BF92CF924D
:1001A000DF92EF92FF920F931F93CF93DF936C0137
:1001B0007B018B01040F151FEB015E01AE18BF0818
:1001C000C017D10759F06991D601ED91FC910190CA
:1001D000F081E02DC6010995892B79F7C501DF91E2
:1001E000CF911F910F91FF90EF90DF90CF90BF9034
:1001F000AF900895FC01538D448D252F30E0842F5E
:1002000090E0821B930B541710F0CF96089501973E
:100210000895FC01918D828D981761F0A28DAE0F2B
:10022000BF2FB11D5D968C91928D9F5F9F73928FB2
:1002300090E008958FEF9FEF0895FC01918D828DDE
:10024000981731F0828DE80FF11D858D90E00895AB
:100250008FEF9FEF0895FC01918D228D892F90E003
:10026000805C9F4F821B91098F73992708958FE6B9
:1002700092E00E942B0121E0892B09F420E0822FDB
:10028000089580E090E0892B29F00E9437018111C8
:100290000C9400000895FC01A48DA80FB92FB11D86
:1002A000A35ABF4F2C91848D90E001968F739927AC
:1002B000848FA689B7892C93A089B1898C9183708A
:1002C00080648C93938D848D981306C00288F38983
:1002D000E02D80818F7D80830895EF92FF920F93B0
:1002E0001F93CF93DF93EC0181E0888F9B8D8C8DE2
:1002F00098131AC0E889F989808185FF15C09FB7D6
:10030000F894EE89FF896083E889F9898081837098
:10031000806480839FBF81E090E0DF91CF911F9147
:100320000F91FF90EF900895F62E0B8D10E00F5F68
:100330001F4F0F731127E02E8C8D8E110CC00FB63E
:1003400007FCFACFE889F989808185FFF5CFCE01D6
:100350000E944B01F1CFEB8DEC0FFD2FF11DE35A05
:10036000FF4FF0829FB7F8940B8FEA89FB89808159
:100370008062CFCFCF93DF93EC01888D8823B9F0D3
:10038000AA89BB89E889F9898C9185FD03C08081A0
:1003900086FD0DC00FB607FCF7CF8C9185FFF2CF1D
:1003A000808185FFEDCFCE010E944B01E9CFDF9127
:1003B000CF91089590E0FC01EA57FF4F2491FC0192
:1003C000E453FF4F3491FC01E854FF4FE491EE23D6
:1003D000C9F0222339F0233001F1A8F4213019F1BA
:1003E000223029F1F0E0EE0FFF1FE255FF4FA591FB
:1003F000B4918FB7F894EC91611126C030953E23EB
:100400003C938FBF08952730A9F02830C9F02430DD
:1004100049F7809180008F7D03C0809180008F77A5
:1004200080938000DFCF84B58F7784BDDBCF84B528
:100430008F7DFBCF8091B0008F778093B000D2CFBB
:100440008091B0008F7DF9CF3E2BDACF3FB7F89483
:100450008091F1019091F201A091F301B091F4012A
:1004600026B5A89B05C02F3F19F00196A11DB11D0F
:100470003FBFBA2FA92F982F8827BC01CD01620F4B
:10048000711D811D911D42E0660F771F881F991F06
:100490004A95D1F708952091C901260F3327331FBC
:1004A00021323105ECF420914502FC0190E080E01E
:1004B000243069F082E00895A091C9012191AC0136
:1004C00047555E4FA40FB52FB11D2C93019686178B
:1004D00098F38091C901680F6093C90180E0089585
:1004E00081E008951092450281E0809344021092C9
:1004F0001F0261E082E10E94DA0161E083E10E9473
:10050000DA01E9EBF0E080818E7F808380818D7F4E
:10051000808388E48093B80085E48093BC000895CC
:10052000CF93DF9391E09093A8018823B9F0C09115
:10053000B800D091BA008091BC008A7B8093BC0047
:1005400060E082E10E94DA0160E083E10E94DA016A
:100550000E947202D093BA00C093B800DF91CF918D
:100560000895CF92DF92EF92FF920F931F93CF9354
:10057000DF93D0916E0281E0D13208F09CC0C0912F
:100580006D020E9426026B017C018091450281115F
:100590006CC082E08093450281E0809344028FEF3B
:1005A0008093430210924202D0934102ADE4B2E044
:1005B000E1E2F2E080E0D8138DC010922002809139
:1005C0002002CC0FC82BC093200280911F028130E3
:1005D00009F084C010921F020E9426026B017C0168
:1005E000809120028093BB00809147029091480245
:1005F000A0914902B0914A02892B8A2B8B2BA1F042
:100600000E9426020091470210914802209149025F
:1006100030914A026C197D098E099F090617170748
:100620002807390708F442C08091BC0083FDD8CF69
:1006300085EC8093BC000E9426026B017C018091B6
:100640004502823009F44CC0809143028F3F09F487
:1006500069C080914302803209F466C080914302F0
:10066000803309F463C084E026C0809147029091F2
:100670004802A0914902B0914A02892B8A2B8B2B08
:1006800009F483CF0E94260200914702109148028C
:100690002091490230914A026C197D098E099F0907
:1006A000061717072807390708F06FCF8091460211
:1006B0000E94900285E010924C0210926E021092FD
:1006C0004B02DF91CF911F910F91FF90EF90DF9040
:1006D000CF9008959D9191938F5F6DCF85EEA9CFB7
:1006E0008091470290914802A0914902B0914A023C
:1006F000892B8A2B8B2B09F4A2CF0E942602009112
:100700004702109148022091490230914A026C1927
:100710007D098E099F09061717072807390708F072
:100720008ECFC4CF80E0C7CF82E0C5CF83E0C3CFF8
:10073000CF92DF92EF92FF920F931F93CF93DF93AD
:10074000D82FC62F613208F098C00E9426026B0194
:100750007C018091450281116BC081E0809345024C
:10076000809344029FEF90934302109242029C0FA9
:10077000909341028093200280912002DD0FD82BBC
:10078000D093200280911F02813009F078C010922E
:100790001F020E9426026B017C018091200280933F
:1007A000BB008091470290914802A0914902B0910C
:1007B0004A02892B8A2B8B2BA1F00E9426020091E2
:1007C0004702109148022091490230914A026C1967
:1007D0007D098E099F09061717072807390708F4AE
:1007E00048C08091BC0083FDD8CF85EC8093BC00CD
:1007F0000E9426026B017C0180914502813009F440
:1008000040C0809142028C1710F4C0914202E1E294
:10081000F2E0AFEFB1E080E08C1355C08C2FDF9198
:10082000CF911F910F91FF90EF90DF90CF9008959F
:100830008091470290914802A0914902B0914A02EA
:10084000892B8A2B8B2B09F484CF0E9426020091DE
:100850004702109148022091490230914A026C19D6
:100860007D098E099F09061717072807390708F021
:1008700070CF809146020E949002C0E0CFCF85EEFB
:10088000B5CF8091470290914802A0914902B09162
:100890004A02892B8A2B8B2B09F4AECF0E942602A9
:1008A00000914702109148022091490230914A027A
:1008B0006C197D098E099F09061717072807390744
:1008C00008F09ACFD6CF91919D938F5FA5CF0895D1
:1008D000E091FD018091FE01E81730F4F0E0E15075
:1008E000FE4F808190E008958FEF9FEF08959091E3
:1008F000FD018091FE012FEF3FEF981748F4E92F9B
:10090000F0E0E150FE4F208130E09F5F9093FD01C9
:10091000C9010895CF92DF92EF92FF920F931F9338
:10092000CF93DF937C01CB018A0120914B022223DC
:1009300089F0EB016B01C40ED51ECC15DD0569F005
:100940006991D701ED91FC910190F081E02DC701F3
:100950000995F3CF642F0E944B02C801DF91CF911C
:100960001F910F91FF90EF90DF90CF900895CF935C
:10097000DF931F92CDB7DEB7698320914B0222230C
:10098000F9F020916E02203258F021E030E0FC01B5
:100990003383228390E080E00F90DF91CF91089520
:1009A00080914C02E82FF0E0E35BFD4F998190834A
:1009B0008F5F80934C0280936E0281E090E0ECCFD9
:1009C00061E0CE0101960E944B02F7CF2091F70122
:1009D0003091F8012817390771F49091F501809151
:1009E000F601981741F0E091F501F0E0E859FE4F6B
:1009F000808190E008958FEF9FEF0895EF92FF922E
:100A00000F931F93CF93DF93DC015C96ED90FC90E6
:100A10005D97E114F10479F481E090E013969C93E2
:100A20008E93129790E080E0DF91CF911F910F910C
:100A3000FF90EF9008955196ED91FC91529750964A
:100A40008C915097982F90950FB75E962C915E974A
:100A5000122F127021FD6095F8942081112319F155
:100A6000282B2083E7012197F1F728E0462F50E05B
:100A7000308160FF1AC0382B3083E7012197F1F7EE
:100A8000BA0175956795215089F7112381F080810E
:100A9000892380830FBF5C968D919C910197F1F71C
:100AA00081E090E0C1CF2923DCCF3923E5CF9081CD
:100AB000892BEFCF2091F7013091F80128173907E2
:100AC00071F48091F6012091F50190E0805C9F4FD8
:100AD000821B910960E470E00E94510E089590E03D
:100AE00080E008952091F7013091F8012817390727
:100AF000B9F49091F5018091F601981789F0E09191
:100B0000F501F0E0E859FE4F80812091F50130E0D9
:100B10002F5F3F4F2F7333272093F50190E0089507
:100B20008FEF9FEF089590E080E00895FC01019021
:100B30000020E9F73197AF01481B590BBC018FE644
:100B400092E00C94CD008F929F92AF92BF920F9340
:100B50001F93CF93DF93CDB7DEB7A1970FB6F8946D
:100B6000DEBF0FBECDBF19A2423008F44AE08E01AD
:100B70000F5D1F4F842E912CB12CA12CA501940147
:100B80000E94650EE62FB901CA01EA30F4F4E05D77
:100B9000D801EE938D01232B242B252B79F790E0A0
:100BA00080E0109719F0CD010E949605A1960FB62E
:100BB000F894DEBF0FBECDBFDF91CF911F910F9193
:100BC000BF90AF909F908F900895E95CE1CF85ED45
:100BD0008093BC008091470290914802A091490205
:100BE000B0914A020796A11DB11D23E0B695A795C5
:100BF000979587952A95D1F72091BC0024FD03C0D5
:100C00001092450208954091470250914802609128
:100C1000490270914A02452B462B472B69F30097F6
:100C2000A105B10541F025E32A95F1F700000197F0
:100C3000A109B109E1CF809146020C9490021F9264
:100C40000F920FB60F9211242F933F934F935F9300
:100C50006F937F938F939F93AF93BF93EF93FF9384
:100C60008FE692E00E944B01FF91EF91BF91AF910F
:100C70009F918F917F916F915F914F913F912F91B4
:100C80000F900FBE0F901F9018951F920F920FB6E6
:100C90000F9211242F938F939F93EF93FF93E091E3
:100CA0007F02F09180028081E0918502F0918602BE
:100CB00082FD1BC09081809188028F5F8F7320918D
:100CC0008902821741F0E0918802F0E0E159FD4F7E
:100CD000958F80938802FF91EF919F918F912F9133
:100CE0000F900FBE0F901F9018958081F4CF1F9228
:100CF0000F920FB60F9211242F933F938F939F93D0
:100D0000AF93BF938091ED019091EE01A091EF011F
:100D1000B091F0013091EC0123E0230F2D3758F50D
:100D20000196A11DB11D2093EC018093ED019093DC
:100D3000EE01A093EF01B093F0018091F101909149
:100D4000F201A091F301B091F4010196A11DB11D32
:100D50008093F1019093F201A093F301B093F40119
:100D6000BF91AF919F918F913F912F910F900FBEA7
:100D70000F901F90189526E8230F0296A11DB11D14
:100D8000D2CF1F920F920FB60F9211242F933F9341
:100D90004F935F936F937F938F939F93AF93BF9383
:100DA000EF93FF938091B900887F803609F44AC0A1
:100DB000F0F5883209F4A7C018F5803109F49BC01A
:100DC000B8F4882309F4F9C0883009F494C0FF917D
:100DD000EF91BF91AF919F918F917F916F915F91B3
:100DE0004F913F912F910F900FBE0F901F9018952C
:100DF000883109F488C0803251F78093430214C0CF
:100E0000803409F49DC040F48033B9F38833F9F697
:100E10008093430285ECB0C0803509F485C08835E5
:100E200009F496C0883499F60E94E705D0CF883936
:100E300009F48CC038F5883729F050F4883611F061
:100E4000803729F683E0809345021092EB0157C06A
:100E5000883809F47BC0803919F0803809F0B7CFA1
:100E60008091EB01803208F071C0E091EB0181E0EC
:100E70008E0F8093EB018091BB00F0E0E553FE4FB5
:100E800080833DC0803B39F0E0F4803A09F479C0BA
:100E9000883A09F09CCF84E0809345021092CA0101
:100EA0001092C901E091FB01F091FC01099580913C
:100EB000C90181110FC081E08093C9011092A9017D
:100EC00009C0803C09F4A6CF883C09F4A3CF883B35
:100ED00009F07DCFE091CA0181E08E0F8093CA01B5
:100EE000F0E0E755FE4F80818093BB009091CA01EE
:100EF0008091C90129C0809120028093BB0085ECBC
:100F00008093BC0064CF9091420280914102981777
:100F100058F5E091420281E08E0F80934202F0E0AA
:100F2000EF5DFD4F8081E9CFE091420281E08E0FBD
:100F3000809342028091BB00F0E0EF5DFD4F808323
:100F400090914202809141029817C8F285E8D8CF6B
:100F5000E091420281E08E0F809342028091BB00BB
:100F6000F0E0EF5DFD4F80838091440281115CCF02
:100F700081E080931F0284EA8093BC0010924502B6
:100F800026CF85EC8093BC00109245028091EB0146
:100F9000803230F4E091EB01F0E0E553FE4F108237
:100FA0006091EB0170E0E091F901F091FA018BECB6
:100FB00091E009951092EB010ACF1092430234CFD1
:100FC0001F920F920FB60F9211242F933F934F93BE
:100FD0005F936F937F938F939F93AF93BF93EF93A1
:100FE000FF93E091F701F091F801309749F0A68561
:100FF000B7858585968D91FF14C09C918923A1F4B6
:10100000FF91EF91BF91AF919F918F917F916F91E0
:101010005F914F913F912F910F900FBE0F901F90B6
:1010200018959C91892361F7A389B4899C9185893E
:10103000809589238C93868997890197F1F7608D34
:10104000718DA685B785558538E020E0CB010197E5
:10105000F1F7822F90E095958795282F4C914523A5
:1010600009F02068315091F7868D81FD209580919F
:10107000F60190E001968F7399273091F5013817AA
:1010800099F0A091F601B0E0A859BE4F2C9380933F
:10109000F601828D938D0197F1F7A389B4898C9124
:1010A0009589892B8C93ACCF868D8160868FF1CF0B
:1010B0000F931F93CF93DF931092720210927102DD
:1010C00088EE93E0A0E0B0E0809373029093740206
:1010D000A0937502B093760224E031E03093700261
:1010E00020936F0225EC30E030937C0220937B024A
:1010F00024EC30E030937E0220937D0220EC30E03F
:101100003093800220937F0221EC30E03093820202
:101110002093810222EC30E03093840220938302FA
:1011200026EC30E0309386022093850210928802EC
:101130001092890210928A0210928B0210920F0371
:1011400010920E038093100390931103A093120347
:10115000B093130326E131E030930D0320930C0389
:1011600010921B0310921A0380931C0390931D038B
:10117000A0931E03B0931F0388E291E0909319039C
:101180008093180310922F0310922E0310923103B4
:1011900010923003109233031092320310923503F1
:1011A00010923403609136036E7F6D7F6093360337
:1011B0006695617081E068270E94DA014DEC50E08D
:1011C000FA01649189EB90E0FC012491222399F0CB
:1011D00030E0220F331FF901EC55FF4FA591B49178
:1011E000F901E255FF4F259134912FB7F8943C91C6
:1011F000632B6C932FBFFA01449140932803FC01A9
:101200008491E82FF0E0EE0FFF1FE255FF4F85912C
:10121000949190932A03809329030CEC10E0F80139
:101220002491C8EBD0E0FE0184918823C9F090E0BE
:10123000880F991FFC01EC55FF4FA591B491FC015B
:10124000E255FF4F459154913FB7F8949C91822FFE
:10125000809598239C93FA019081892380833FBFD6
:101260008091360381FD04C061E080E00E94DA01D4
:1012700010922403F801049100932503FE01C49108
:10128000EC2FF0E0EE0FFF1FE656FF4F8591949193
:101290009093270380932603DF91CF911F910F91A5
:1012A0000895789484B5826084BD84B5816084BDDE
:1012B00085B5826085BD85B5816085BD80916E00F4
:1012C000816080936E001092810080918100826025
:1012D0008093810080918100816080938100809162
:1012E00080008160809380008091B1008460809351
:1012F000B1008091B00081608093B00080917A004D
:10130000846080937A0080917A00826080937A0072
:1013100080917A00816080937A0080917A00806861
:1013200080937A001092C1000E949C0086E391E0B5
:101330000E9496058CE391E00E949605109233037B
:1013400010923203109231031092300310922F0347
:1013500010922E038DE991E090933503809334032E
:1013600090912403963108F047C02DEB30E0309384
:101370002F0320932E032BE931E030933103209388
:1013800030032CE231E03093330320933203209179
:10139000680084E0983048F031E09E3008F430E096
:1013A00081E001C0880F3A95EAF7822B80936800AC
:1013B0002DE630E0983050F02BE630E09E3030F0F3
:1013C0002CE630E0963110F030E020E030932C0332
:1013D00020932B03292F30E0983008F04BC181E097
:1013E00001C0880F9A95EAF780932D03809134030A
:1013F000909135030197F1F7809132039091330377
:10140000892B49F1E091F701F091F80183E0E8318F
:10141000F80709F1309739F0A389B4899C9185893F
:10142000809589238C93809136038E7F8093360339
:101430001092F6011092F50188E193E09093F80183
:101440008093F701E0912B03F0912C038081909120
:101450002D03892B808310926E020E9472028BEC06
:1014600090E09093FC018093FB018CEC90E09093D2
:10147000FA018093F9010E949C0080E480936D0240
:101480000E94B10280E0282E80E0382E81E0809317
:101490004B0280E480936D0210924C0210926E0217
:1014A00065EF8CE093E00E94B7040E94B10262E015
:1014B00080E40E9498031092FD018093FE01823027
:1014C00051F48CE093E00E9477048C018CE093E06F
:1014D0000E947704EC0181E080934B0210924C0251
:1014E00010926E0263EF8CE093E00E94B7040E94BA
:1014F000B10262E080E40E9498031092FD018093A3
:10150000FE01823051F48CE093E00E9477048C015C
:101510008CE093E00E947704EC01B80190E080E059
:101520000E94980C20E030E040E853E40E944F0D08
:101530006B017C01BE0190E080E00E94980C9B0151
:10154000AC01C701B6010E94F80B22E538EB4FE26F
:1015500053E40E944F0D20E030E040E857E30E9442
:101560004F0D26E636E64BE352E40E94F70B6B0183
:101570007C012BED3FE049E450E40E94F70B0E9410
:10158000BC0D4B015C0120E030E040E251E4C701BA
:10159000B6010E94F70B6B017C0128EC37E04DE3AC
:1015A0005DE3C501B4010E944F0D4B015C01A70131
:1015B0009601C701B6010E944F0D22E238E540E3D3
:1015C0005AE30E944F0D9B01AC01C501B4010E947A
:1015D000F70B28E431EE43E152E40E94F80B6B0173
:1015E0007C014B015C018FE391E00E949605A7010D
:1015F0009601C701B6010E94C40D882309F447C0B3
:1016000087E591E00E94960583E691E00E949605A9
:101610008CE391E00E9496058FE692E00E942B01F8
:10162000892B21F08FE692E00E9409018FE692E07B
:101630000E940901682F88E193E00E94FE0488E17E
:1016400093E00E945A05892B49F088E193E00E94BB
:101650007205682F8FE692E00E946D01211431041B
:1016600009F414CF0E943701882309F40FCF0E9498
:1016700000000CCF9E3040F42850310981E001C0B9
:10168000880F2A95EAF7B0CE2E503109F7CF260100
:101690003701E89477F82FEF3FEF4FE75FE7C3019B
:1016A000B2010E94C40D81110DC02FEF3FEF4FE733
:1016B0005FE7C301B2010E94640C18161CF48BE5AD
:1016C00091E0A0CF2FEF3FEF4FE75FE4C701B601F6
:1016D0000E944A0D18161CF48FE591E093CF2FEF6E
:1016E0003FEF4FE75FECC701B6010E94640C87FD36
:1016F000F3CF20E030E0A901C701B6010E94640CDD
:1017000087FF0BC06DE28FE692E00E946D014601FB
:101710005701B7FAB094B7F8B0942AE037ED43EA2E
:101720005BE3C501B4010E94F80B4B015C010E9410
:10173000690C6B017C010E94980C9B01AC01C501F6
:10174000B4010E94F70B4B015C014AE0C701B601EE
:101750000E94A3056EE28FE692E00E946D0120E0F8
:1017600030E040E251E4C501B4010E944F0D4B014D
:101770005C010E94690C6B01F12CE12C4AE0C7016D
:10178000B6010E94A305C701B6010E94980C9B01F7
:10179000AC01C501B4010E94F70B20E030E040E24B
:1017A00051E40E944F0D0E94690C90E080E04AE0F5
:1017B0000E94A30529CF88E291E0909319038093BA
:1017C00018038091F7019091F8018851934071F4CA
:1017D000E0912B03F0912C03908180912D03809553
:1017E000892380831092F8011092F70108955058D0
:1017F000BB27AA270E940F0C0C94100D0E94020D0B
:1018000038F00E94090D20F039F49F3F19F426F4B6
:101810000C94FF0C0EF4E095E7FB0C94F90CE92F07
:101820000E94210D58F3BA176207730784079507C2
:1018300020F079F4A6F50C94430D0EF4E0950B2EF0
:10184000BA2FA02D0B01B90190010C01CA01A00112
:101850001124FF27591B99F0593F50F4503E68F16D
:101860001A16F040A22F232F342F4427585FF3CFAE
:10187000469537952795A795F0405395C9F77EF47F
:101880001F16BA0B620B730B840BBAF09150A1F0C8
:10189000FF0FBB1F661F771F881FC2F70EC0BA0F4E
:1018A000621F731F841F48F4879577956795B795D6
:1018B000F7959E3F08F0B0CF9395880F08F09927D1
:1018C000EE0F9795879508950E94D50C08F481E056
:1018D00008950E94290D88F09F5798F0B92F9927F5
:1018E000B751B0F0E1F0660F771F881F991F1AF00B
:1018F000BA95C9F714C0B13091F00E94430DB1E020
:1019000008950C94430D672F782F8827B85F39F01E
:10191000B93FCCF3869577956795B395D9F73EF4A3
:1019200090958095709561957F4F8F4F9F4F08954B
:10193000E89409C097FB3EF4909580957095619569
:101940007F4F8F4F9F4F9923A9F0F92F96E9BB271F
:101950009395F695879577956795B795F111F8CF9B
:10196000FAF4BB0F11F460FF1BC06F5F7F4F8F4F06
:101970009F4F16C0882311F096E911C0772321F0FC
:101980009EE8872F762F05C0662371F096E8862F94
:1019900070E060E02AF09A95660F771F881FDAF7EB
:1019A000880F9695879597F90895990F0008550F18
:1019B000AA0BE0E8FEEF16161706E807F907C0F0D5
:1019C00012161306E407F50798F0621B730B840BDD
:1019D000950B39F40A2661F0232B242B252B21F4B7
:1019E00008950A2609F4A140A6958FEF811D811D57
:1019F000089597F99F6780E870E060E008959FEF91
:101A000080EC089500240A94161617061806090695
:101A1000089500240A941216130614060506089564
:101A2000092E0394000C11F4882352F0BB0F40F4EC
:101A3000BF2B11F460FF04C06F5F7F4F8F4F9F4F2C
:101A4000089557FD9058440F551F59F05F3F71F0AE
:101A50004795880F97FB991F61F09F3F79F0879515
:101A60000895121613061406551FF2CF4695F1DF9E
:101A700008C0161617061806991FF1CF869571052E
:101A8000610508940895E894BB2766277727CB0162
:101A900097F908950E94D50C08F48FEF08950E94DD
:101AA000620D0C94100D0E94020D38F00E94090D79
:101AB00020F0952311F00C94F90C0C94FF0C1124D8
:101AC0000C94440D0E94210D70F3959FC1F3950F66
:101AD00050E0551F629FF001729FBB27F00DB11DB2
:101AE000639FAA27F00DB11DAA1F649F6627B00D42
:101AF000A11D661F829F2227B00DA11D621F739F2B
:101B0000B00DA11D621F839FA00D611D221F749F38
:101B10003327A00D611D231F849F600D211D822F7F
:101B2000762F6A2F11249F5750409AF0F1F08823A6
:101B30004AF0EE0FFF1FBB1F661F771F881F9150D3
:101B40005040A9F79E3F510580F00C94F90C0C947D
:101B5000440D5F3FE4F3983ED4F3869577956795FF
:101B6000B795F795E7959F5FC1F7FE2B880F911DFD
:101B70009695879597F908959F930E94CB0D0F90A6
:101B800007FCEE5F0C94F40D0E94D50C880B990BAA
:101B900008950C94FF0C0E94290DD8F3E894E0E01E
:101BA000BB279F57F0F02AED3FE049EC06C0EE0F4F
:101BB000BB0F661F771F881F28F0B23A62077307B2
:101BC000840728F0B25A620B730B840BE3959A9545
:101BD00072F7803830F49A95BB0F661F771F881F05
:101BE000D2F790480C940A0EEF93E0FF07C0A2EAE8
:101BF0002AED3FE049EC5FEB0E940F0C0E94100DB4
:101C00000F90039401FC9058E8E6F0E00C94160E57
:101C10009F3F31F0915020F4879577956795B79560
:101C2000880F911D9695879597F908959F938F93A7
:101C30007F936F93FF93EF939B01AC010E944F0D35
:101C4000EF91FF910E942A0E2F913F914F915F914A
:101C50000C944F0DDF93CF931F930F93FF92EF924E
:101C6000DF927B018C01689406C0DA2EEF010E949E
:101C7000620DFE01E894A59125913591459155910C
:101C8000A6F3EF010E940F0CFE019701A801DA9460
:101C900069F7DF90EF90FF900F911F91CF91DF9147
:101CA000089597FB072E16F4009407D077FD09D00E
:101CB0000E94870E07FC05D03EF4909581959F4FBA
:101CC0000895709561957F4F0895A1E21A2EAA1B81
:101CD000BB1BFD010DC0AA1FBB1FEE1FFF1FA217DC
:101CE000B307E407F50720F0A21BB30BE40BF50BD9
:101CF000661F771F881F991F1A9469F76095709562
:101D0000809590959B01AC01BD01CF010895AA1B60
:101D1000BB1B51E107C0AA1FBB1FA617B70710F0D6
:101D2000A61BB70B881F991F5A95A9F78095909508
:101D3000BC01CD010895EE0FFF1F0590F491E02D39
:101D4000099410E0C1E7D0E004C0FE010E949B0EA0
:0C1D50002196C237D107C9F7F894FFCFE5
:101D5C00000000006D01CD00FA00BA012B01090151
:101D6C001D0100000000B7048A0493056704C40039
:101D7C007704680400000000FE04CD00930567049E
:101D8C005A057205E6046C6973746F000D0A0054F1
:101D9C00656D706572617475726120436F72706FDE
:101DAC0072616C203A20006E616E00696E66006F85
:081DBC0076660020C2B00000B1
:00000001FF
