:100000000C9463000C948B000C948B000C94ED0208
:100010000C94ED020C94ED020C948B000C948B006C
:100020000C948B000C948B000C948B000C948B0024
:100030000C948B000C948B000C948B000C948B0014
:100040000C944B020C948B000C94BB020C94950204
:100050000C948B000C948B000C948B000C948B00F4
:100060000C948B000C948B0000000008000201002F
:100070000003040700000000000000000000000072
:1000800023002600290000000000240027002A0089
:1000900000000000250028002B00040404040404D0
:1000A0000404020202020202030303030303010227
:1000B00004081020408001020408102001020408F6
:1000C0001020B103EB0511241FBECFEFD8E0DEBF37
:1000D000CDBF11E0A0E0B1E0E4E8FCE002C0059093
:1000E0000D92A033B107D9F722E0A0E3B1E001C03F
:1000F0001D92AB33B207E1F710E0C2E6D0E004C0D6
:100100002197FE010E942F06C136D107C9F70E9430
:1001100098040C9435060C940000AF92BF92CF92D5
:10012000DF92EF92FF920F931F93CF93DF936C01B7
:100130007B018B01040F151FEB015E01AE18BF0898
:10014000C017D10759F06991D601ED91FC9101904A
:10015000F081E02DC6010995892B79F7C501DF9162
:10016000CF911F910F91FF90EF90DF90CF90BF90B4
:10017000AF900895FC01538D448D252F30E0842FDE
:1001800090E0821B930B541710F0CF9608950197BF
:100190000895FC01918D828D981761F0A28DAE0FAC
:1001A000BF2FB11D5D968C91928D9F5F9F73928F33
:1001B00090E008958FEF9FEF0895FC01918D828D5F
:1001C000981731F0828DE80FF11D858D90E008952C
:1001D0008FEF9FEF0895FC01918D228D892F90E084
:1001E000805C9F4F821B91098F73992708958FE739
:1001F00091E00E94EB0021E0892B09F420E0822F9E
:10020000089580E090E0892B29F00E94F700811189
:100210000C9400000895FC01A48DA80FB92FB11D06
:10022000A35ABF4F2C91848D90E001968F7399272C
:10023000848FA689B7892C93A089B1898C9183700A
:1002400080648C93938D848D981306C00288F38903
:10025000E02D80818F7D80830895EF92FF920F9330
:100260001F93CF93DF93EC0181E0888F9B8D8C8D62
:1002700098131AC0E889F989808185FF15C09FB756
:10028000F894EE89FF896083E889F9898081837019
:10029000806480839FBF81E090E0DF91CF911F91C8
:1002A0000F91FF90EF900895F62E0B8D10E00F5FE9
:1002B0001F4F0F731127E02E8C8D8E110CC00FB6BF
:1002C00007FCFACFE889F989808185FFF5CFCE0157
:1002D0000E940B01F1CFEB8DEC0FFD2FF11DE35AC6
:1002E000FF4FF0829FB7F8940B8FEA89FB898081DA
:1002F0008062CFCFCF93DF93EC01888D8823B9F054
:10030000AA89BB89E889F9898C9185FD03C0808120
:1003100086FD0DC00FB607FCF7CF8C9185FFF2CF9D
:10032000808185FFEDCFCE010E940B01E9CFDF91E7
:10033000CF910895209172013091730128173907E8
:1003400071F49091700180917101981741F0E091E2
:100350007001F0E0E05DFE4F808190E008958FEF46
:100360009FEF08950895EF92FF920F931F93CF93FD
:10037000DF93DC015C96ED90FC905D97E114F10455
:1003800079F481E090E013969C938E93129790E01D
:1003900080E0DF91CF911F910F91FF90EF90089532
:1003A0005196ED91FC91529750968C915097982FC1
:1003B00090950FB75E962C915E97122F127021FDCB
:1003C0006095F8942081112319F1282B2083E701EF
:1003D0002197F1F728E0462F50E0308160FF1AC0E6
:1003E000382B3083E7012197F1F7BA0175956795AE
:1003F000215089F7112381F08081892380830FBFE9
:100400005C968D919C910197F1F781E090E0C1CFCE
:100410002923DCCF3923E5CF9081892BEFCF2091A1
:100420007201309173012817390771F480917101BD
:100430002091700190E0805C9F4F821B910960E4E5
:1004400070E00E940706089590E080E008952091F2
:1004500072013091730128173907B9F49091700136
:1004600080917101981789F0E0917001F0E0E05DF2
:10047000FE4F80812091700130E02F5F3F4F2F733E
:1004800033272093700190E008958FEF9FEF089538
:1004900090E080E008951F920F920FB60F92112402
:1004A0002F933F938F939F93AF93BF9380917B0143
:1004B00090917C01A0917D01B0917E0130917A01F3
:1004C00023E0230F2D3758F50196A11DB11D209370
:1004D0007A0180937B0190937C01A0937D01B0937E
:1004E0007E018091760190917701A0917801B09181
:1004F00079010196A11DB11D80937601909377013A
:10050000A0937801B0937901BF91AF919F918F91A2
:100510003F912F910F900FBE0F901F90189526E8D6
:10052000230F0296A11DB11DD2CF1F920F920FB6BD
:100530000F9211242F933F934F935F936F937F9369
:100540008F939F93AF93BF93EF93FF938FE791E0C8
:100550000E940B01FF91EF91BF91AF919F918F91FD
:100560007F916F915F914F913F912F910F900FBEAF
:100570000F901F9018951F920F920FB60F92112493
:100580002F938F939F93EF93FF93E0918F01F091BF
:1005900090018081E0919501F091960182FD1BC050
:1005A0009081809198018F5F8F73209199018217BC
:1005B00041F0E0919801F0E0E158FE4F958F809373
:1005C0009801FF91EF919F918F912F910F900FBE06
:1005D0000F901F9018958081F4CF1F920F920FB645
:1005E0000F9211242F933F934F935F936F937F93B9
:1005F0008F939F93AF93BF93EF93FF93E09172011B
:10060000F0917301309749F0A685B7858585968D61
:1006100091FF14C09C918923A1F4FF91EF91BF91A8
:10062000AF919F918F917F916F915F914F913F918A
:100630002F910F900FBE0F901F9018959C918923BA
:1006400061F7A389B4899C918589809589238C93CE
:10065000868997890197F1F7608D718DA685B78599
:10066000558538E020E0CB010197F1F7822F90E02B
:1006700095958795282F4C91452309F02068315096
:1006800091F7868D81FD20958091710190E0019612
:100690008F73992730917001381799F0A0917101EB
:1006A000B0E0A05DBE4F2C9380937101828D938D3D
:1006B0000197F1F7A389B4898C919589892B8C9343
:1006C000ACCF868D8160868FF1CF90E0FC01E85938
:1006D000FF4F2491FC01E255FF4F3491FC01E65697
:1006E000FF4FE491EE23C9F0222339F0233001F1CA
:1006F000A8F4213019F1223029F1F0E0EE0FFF1FAC
:10070000E057FF4FA591B4918FB7F894EC91611128
:1007100026C030953E233C938FBF08952730A9F023
:100720002830C9F0243049F7809180008F7D03C0C4
:10073000809180008F7780938000DFCF84B58F77A2
:1007400084BDDBCF84B58F7DFBCF8091B0008F77E8
:100750008093B000D2CF8091B0008F7DF9CF3E2B37
:10076000DACF0F931F93CF93DF93109282011092F1
:10077000810188EE93E0A0E0B0E080938301909344
:100780008401A0938501B093860124E031E0309389
:10079000800120937F0125EC30E030938C01209381
:1007A0008B0124EC30E030938E0120938D0120ECFE
:1007B00030E03093900120938F0121EC30E03093B2
:1007C00092012093910122EC30E030939401209328
:1007D000930126EC30E0309396012093950110921E
:1007E00098011092990110929A0110929B01109217
:1007F0001F0210921E028093200290932102A09368
:100800002202B093230286E191E090931D0280932F
:100810001C02109233021092320210923502109292
:10082000340210923702109236021092390210925E
:10083000380260913A026E7F6D7F60933A0266954E
:10084000617081E068270E9465034FEA50E0FA0179
:1008500064918BE990E0FC012491222399F030E02F
:10086000220F331FF901EA57FF4FA591B491F90107
:10087000E057FF4F259134912FB7F8943C91632BAB
:100880006C932FBFFA01449140932C02FC01849198
:10089000E82FF0E0EE0FFF1FE057FF4F8591949196
:1008A00090932E0280932D020EEA10E0F80124911D
:1008B000CAE9D0E0FE0184918823C9F090E0880F56
:1008C000991FFC01EA57FF4FA591B491FC01E05735
:1008D000FF4F459154913FB7F8949C91822F80959A
:1008E00098239C93FA019081892380833FBF809154
:1008F0003A0281FD04C061E080E00E94650310922D
:100900002802F801049100932902FE01C491EC2F02
:10091000F0E0EE0FFF1FE458FF4F85919491909304
:100920002B0280932A02DF91CF911F910F9108959E
:10093000789484B5826084BD84B5816084BD85B5BA
:10094000826085BD85B5816085BD80916E008160C6
:1009500080936E001092810080918100826080936C
:10096000810080918100816080938100809180006E
:100970008160809380008091B10084608093B10099
:100980008091B00081608093B00080917A00846093
:1009900080937A0080917A00826080937A008091BF
:1009A0007A00816080937A0080917A0080688093D9
:1009B0007A001092C1001092370210923602109203
:1009C00035021092340210923302109232028DE9F5
:1009D00091E09093390280933802909128029631E9
:1009E00008F047C02DEB30E0309333022093320201
:1009F0002BE931E030933502209334022CE231E0D0
:100A000030933702209336022091680084E09830BA
:100A100048F031E09E3008F430E081E001C0880FFA
:100A20003A95EAF7822B809368002DE630E0983003
:100A300050F02BE630E09E3030F02CE630E096317E
:100A400010F030E020E03093300220932F02292F65
:100A500030E0983008F0B2C081E001C0880F9A956C
:100A6000EAF7809331028091380290913902019720
:100A7000F1F78091360290913702892B49F1E0918C
:100A80007201F091730182E0EC31F80709F13097BF
:100A900039F0A389B4899C918589809589238C93A9
:100AA00080913A028E7F80933A02109271011092E7
:100AB00070018CE192E09093730180937201E09158
:100AC0002F02F0913002808190913102892B808336
:100AD000E0918F01F091900182E08083E0918B01A1
:100AE000F0918C011082E0918D01F0918E018FECDC
:100AF000808310929701E0919301F091940186E038
:100B00008083E0919101F0919201808180618083E6
:100B1000E0919101F0919201808188608083E09161
:100B20009101F0919201808180688083E091910130
:100B3000F091920180818F7D8083C0E0D0E041E020
:100B400050E064E271E08FE791E00E948D008FE752
:100B500091E00E94EB00181619067CF48CE192E0FB
:100B60000E940F021816190644F48FE791E00E94C4
:100B7000C9009093750180937401809174019091E4
:100B800075018534910589F48CE192E00E94270279
:100B9000682F8FE791E00E942D0148E050E066E267
:100BA00071E08FE791E00E948D00209741F20E9452
:100BB000F700882321F20E940000C1CF9E3040F44C
:100BC0002850310981E001C0880F2A95EAF749CF02
:100BD0002E503109F7CF86E191E090931D0280936A
:100BE0001C0280917201909173018C51924071F4BA
:100BF000E0912F02F0913002908180913102809536
:100C0000892380831092730110927201089597FBDB
:100C1000072E16F4009407D077FD09D00E941B061A
:100C200007FC05D03EF4909581959F4F08957095EF
:100C300061957F4F0895AA1BBB1B51E107C0AA1FF6
:100C4000BB1FA617B70710F0A61BB70B881F991F6D
:100C50005A95A9F780959095BC01CD010895EE0FA6
:100C6000FF1F0590F491E02D099410E0C2E6D0E05A
:100C700004C0FE010E942F062196C336D107C9F792
:040C8000F894FFCF16
:100C8400000000002D018D00BA007A01EB00C900BC
:100C9400DD0000000000B3018D004802B2010F0224
:100CA40027029A0145006F6C616D756E646F0000D8
:00000001FF
